:020000040800F2
:1000000070080020450100089F110008F90E000843
:100010009D110008B10100084D1400080000000007
:100020000000000000000000000000000D130008A8
:10003000B301000800000000A11100080F13000820
:100040005F0100085F0100085F0100085F01000810
:100050005F0100085F0100085F0100085F01000800
:100060005F0100085F0100085F0100085F010008F0
:100070005F0100085F0100085F0100085F010008E0
:100080005F0100085F0100085F0100085F010008D0
:100090005F0100085F0100085F0100085F010008C0
:1000A0005F0100085F0100085F0100085F010008B0
:1000B0005F0100085F0100085F0100085F010008A0
:1000C0005F0100085F0100085F0100085F01000890
:1000D0005F0100085F0100085F0100085F01000880
:1000E0005F0100085F0100085F0100085F01000870
:1000F0005F0100085F0100085F0100085F01000860
:100100005F0100085F0100085F0100085F0100084F
:100110005F0100085F0100085F0100085F0100083F
:100120005F0100085F0100085F0100085F0100082F
:10013000DFF80CD000F02AF8004800478D140008C2
:10014000700800200648804706480047FEE7FEE7A3
:10015000FEE7FEE7FEE7FEE7FEE7FEE7FEE7FEE777
:100160009313000831010008D2B201E000F8012B1E
:10017000491EFBD270470022F6E710B513460A4627
:1001800004461946FFF7F0FF204610BD064C074D08
:1001900006E0E06840F0010394E807009847103457
:1001A000AC42F6D3FFF7C8FF101900083019000859
:1001B000FEE7704772B6FEE770B5044600F010F92E
:1001C0000546601C02D004480078044400F008F999
:1001D000401BA042FAD370BD000000202DE9F84F6B
:1001E000DFF8C8910024A9F1040B23460F2709F179
:1001F000040AABF1040ED1E00125A54006EA050290
:10020000AA4276D1DFF8A8C14E68A6EB0C08664575
:100210002BD00DDC032E34D005DC36B3012E19D0E3
:10022000022E2FD11BE0112E16D0122E2AD119E04A
:10023000B8F5881F19D006DCB8F5803F15D0B8F5A1
:10024000801F1FD111E0B8F5001F0ED0B8F5041FB4
:1002500018D10AE0CB6815E0CB681B1D12E0CB6813
:1002600008330FE0CB680C330CE08B682BB1012B0B
:100270004FF0080303D0456104E0042302E0056168
:1002800000E00023FF2A01D8064601E000F1040641
:100290004FEA840501D9A5F12005D6F8008007FAB8
:1002A00005FC28EA0C0803FA05F548EA0508C6F833
:1002B00000804D68ED0070D53E4DAE6946F00106F8
:1002C000AE61AD6924F0030605F0010500953A4DD5
:1002D00006EB050CDCF80850A607360F07FA06F8FF
:1002E00025EA0805DFF8D480404503D14FF0000827
:1002F00025E052E0DFF8C880404502D14FF0010808
:100300001DE0DFF8C080404502D14FF0020816E042
:10031000DFF8B480404502D14FF003080FE0DFF86A
:10032000AC80404502D14FF0040808E0DFF8A0801F
:10033000404502D14FF0050801E04FF0060808FAE9
:1003400006F848EA0508CCF808804D68D9F800603E
:10035000ED024D4601D5164300E096432E604D68F0
:10036000DAF80060AD02554601D5164300E0964329
:100370002E604D68DBF80060AD035D4601D5164385
:1003800000E096432E604D68DEF80060ED03754690
:1003900001D5164300E096432E60641C0A68164699
:1003A000E2407FF429AFBDE8F88F00000804014067
:1003B0000000111000100240000001400008014040
:1003C000000C0140001001400014014000180140E1
:1003D000001C01400AB1016170470904FBE70000FD
:1003E00001488068704700000000002002488168D2
:1003F000027811448160704700000020074810B562
:10040000016841F010010160032000F067F80F203F
:1004100000F006F800F024F8002010BD0020024093
:1004200070B50D4D04464FF47A712878B1FBF0F0A9
:100430000A490968B1FBF0F000F0DFFC48B9102C64
:1004400007D200222146501E00F028F800206C60E0
:1004500070BD012070BD0000000000200C000020D5
:100460000C4808B5816941F001018161816901F0A1
:1004700001010091C16941F08051C161C06900F082
:10048000805000900448416821F0E06141F0007123
:10049000416008BD0010024000000140F0B40E4B66
:1004A0001B680C46C3F30223C3F10705042D00D9D2
:1004B0000425191D072901D2002300E0DB1E0126B7
:1004C00006FA05F1491E214099409E40761E1640CD
:1004D0003143F0BC00F0BBBF0CED00E0064900F07A
:1004E000070208684FF6FF03184040EA0220034A5B
:1004F00010430860704700000CED00E00000FA05B2
:10050000014901200862704700000E4210B5014603
:100510000020284C04292FD00BDC012930D00229DF
:1005200029D100F06BF96168C1F38131491C4900A0
:100530001FE0082920D010291DD161682268D2014E
:1005400019D51D48C1F38342C903805C0AD561688F
:10055000194AC1F34041921E515C184AB2FBF1F1B5
:10056000484301E0164948436168490203D440000A
:100570000321B0FBF1F010BDBDE8104000F04EB912
:10058000226AC2F30121012903D1920701D5C803D0
:1005900010BD022905D1626A920702D549F6404092
:1005A00010BD0329FCD121688903F9D54FF22440FD
:1005B00010BD000000100240E814000800127A008C
:1005C00000093D002DE9F84305460078354CC00789
:1005D00054D0E0690026C00008D4E06940F08050A3
:1005E000E061E069012600F0805000902E4801682B
:1005F000C90512D40168804641F480710160FFF79B
:10060000EFFE074605E000BFFFF7EAFEC01B6428C7
:1006100023D8D8F80000C005F6D5206A10F4407041
:1006200021D0A98801F4407181421CD0206A1F4961
:10063000012220F440700A6000220A602062C00794
:1006400011D0FFF7CDFE074641F2883808E000BF21
:10065000FFF7C6FEC11B414502D90320BDE8F88360
:10066000206A8007F4D5206A696820F44070084346
:1006700020621EB1E06920F08050E0612878800798
:1006800005D56068A96820F4404008436060287878
:10069000C00605D56068696920F480000843606081
:1006A0000020DBE70010024000700040400442429E
:1006B0002DE9F0470F46050061D0434E306800F049
:1006C0000700B84209D2306820F007003843306094
:1006D000306800F00700B84251D128683B4C8107D0
:1006E00012D5400703D5606840F4E0606060287868
:1006F000000703D5606840F4605060606068A968D6
:1007000020F0F000084360602878C00728D06868AF
:10071000012810D02168022810D0890700292EDA7C
:10072000616821F0030101436160FFF759FE8046D3
:1007300041F288390DE021688903EFE78901EDE78F
:10074000FFF74EFEA0EB0801494502D90320BDE8A2
:10075000F0876068696800F00C00B0EB810FEFD1A2
:10076000306800F00700B8420BD9306820F007006D
:1007700038433060306800F00700B84201D00120F3
:10078000E5E72878400705D56068E96820F4E0606F
:10079000084360602878000706D56068296920F45E
:1007A000605040EAC100606000F038F86168084AB3
:1007B000C1F30311515CC84006490860064800684F
:1007C000FFF72EFE0020C2E700200240001002408A
:1007D000F81400080C00002004000020044805491B
:1007E00000684968044AC1F30221515CC84070475F
:1007F0000C000020001002400815000804480549BC
:1008000000684968044AC1F3C221515CC84070477E
:100810000C00002000100240081500080E4A516824
:100820000E4801F00C03042B11D0082B0FD10C48FB
:10083000C1F38343C903C05C0AD55168084AC1F3B8
:100840004041921E515C054A5043B0FBF1F07047A5
:1008500004494843704700000010024000127A002B
:10086000D614000800093D002DE9F84F040070D0AF
:100870002078C04DC00749D06868C0F381000128C6
:1008800007D06868C0F38100022809D16868C003F6
:1008900006D52868800339D560680028E7D035E0A0
:1008A0006068B0F5803F0BD010B1B0F5A02F11D02B
:1008B000286820F480302860286820F4802002E036
:1008C000286840F480302860606890B1FFF788FDA8
:1008D00006460AE0286840F480202860F0E700BF60
:1008E000FFF77EFD801B642873D828688003F7D546
:1008F0000CE0FFF775FD064605E000BFFFF770FD51
:10090000801B6428F0D828688003F7D420789A4E9A
:1009100080074FF001094FF0000839D5686810F0E2
:100920000C0F07D06868C0F38100022809D16868FD
:10093000C00306D42868800714D52069012808D18F
:1009400010E02069B0B1C6F80090FFF749FD0746F6
:1009500005E00AE1FFF744FDC01B0228C4D828685F
:100960008007F7D52868616920F0F80040EAC100E7
:1009700028600DE0C6F80080FFF732FD074604E06E
:10098000FFF72EFDC01B022823D828688007F7D464
:10099000207800072CD57948A169D9B1C0F800901A
:1009A000FFF71EFD074604E0FFF71AFDC01B0228F3
:1009B0000FD8686A8007F7D571484FF4FA5100687C
:1009C000B0FBF1F0009000BF0098411E0091FAD2F8
:1009D0000EE080E0C0F80080FFF702FD074604E06B
:1009E000FFF7FEFCC01B022875D8686A8007F7D4A1
:1009F0002078400760D5E8690027C00008D4E8697E
:100A000040F08050E861E869012700F080500090D4
:100A10005C480168C90513D40168834641F48071BC
:100A20000160FFF7DDFC824606E000BFFFF7D8FC5F
:100A3000A0EB0A0064284ED8DBF80000C005F5D50D
:100A4000E06801280AD008B1052813D0286A20F0F0
:100A500001002862286A20F0040002E0286A40F0C1
:100A600001002862E06841F2883B98B1FFF7B8FCCA
:100A700082460BE0286A40F004002862EEE700BFDF
:100A8000FFF7AEFCA0EB0A0159455AD8286A800747
:100A9000F6D50CE0FFF7A4FC824605E0FFF7A0FCCA
:100AA000A0EB0A0159454CD8286A8007F6D41FB13B
:100AB000E86920F08050E861E06988B36968C1F3B3
:100AC0008101022944D00228C6F8608004D0FFF7D3
:100AD00087FC044638E034E0FFF782FC074604E078
:100AE000FFF77EFCC01B02282BD828688001F7D4B2
:100AF000206AB0F5803F05D16868A16820F4003015
:100B000008436860D4E908010843696821F4741156
:100B100008436860C6F86090FFF762FC044606E090
:100B200025E000BFFFF75CFC001B022809D82868FD
:100B30008001F7D51BE000BFFFF752FC001B022825
:100B400002D90320BDE8F88F28688001F4D40EE0B4
:100B50000128F7D06868226A00F48031914204D1FC
:100B6000616A00F47010884201D00120EAE7002099
:100B7000E8E70000001002400000424280044242C8
:100B80000C0000200070004070B5040003D0607CB1
:100B9000002610B105E0012070BD2674204600F04B
:100BA0003DF802206074204600F00AF9042550BB8D
:100BB000204600F0FFFA30BB2068416821F00701B1
:100BC0004160A06820B11448016821F00101016072
:100BD0001148001F0168A26821F46071114301608F
:100BE0006068411C04D10120FFF790FC58B1401E01
:100BF0002268C0F303419160216880B2C86020463A
:100C000000F0F2FA08B16574C5E7E673012060737D
:100C1000A0736074002070BD306C004008B500689F
:100C2000084988420DD1FFF76BFC0748C16941F0C4
:100C30000061C161C069054900F0006000900120B9
:100C4000086008BD00280040001002403C044242F9
:100C50002DE9F0410D4604003BD0C5B3207C0128AE
:100C60003AD04FF0010884F8108002206074E878D0
:100C700072B300F096FAE073687800F092FA60734D
:100C8000A87800F08EFAA073C2B2617BE07B00F01E
:100C9000DDFA20732870204600F0C8FA4FF4616135
:100CA000B0FBF1F1002518292DD91822B1FBF2F182
:100CB000A1EB011101EB4101C1EB011100EBC116E8
:100CC0003146204600F001FB0427C8B90BE000E0E4
:100CD00004E00120BDE8F0810220FBE7E0736878C2
:100CE0006073A878CFE7204600F099FA411C0AD03B
:100CF000B04208D206490144204600F0D2FA10B1B1
:100D000067742574E5E784F8118025740020E1E715
:100D1000805101002DE9F0410D46040024D01DB39F
:100D2000207C012823D04FF0010884F81080022095
:100D300060742878EAB100F034FA4FF4616100FB86
:100D400001F6687800F02DFAC0EB001006EB800683
:100D5000A87800F026FA35182946204600F0B5FAA2
:100D60000026042710BB0FE00120BDE8F08102201F
:100D7000FBE74FF4616148436978C1EB011100EB77
:100D80008100A9784518E7E72068416821F005014E
:100D90004160204600F043FA411C0AD0A84208D224
:100DA00006490144204600F07CFA10B167742674AD
:100DB000DAE784F8118026740020D6E7805101001C
:100DC00070B504000AD02068416821F00801416034
:100DD000FFF706FB05464FF47A7608E0012070BD68
:100DE000FFF7FEFA401BB04201D9032070BD206816
:100DF00040680007F4D5002070BD10B5401EB0F16A
:100E0000807F01D3012010BD4FF0E02460610F21ED
:100E1000601700F01CFB0020A0610720206100206B
:100E200010BD70B5040004D094F84100002510B145
:100E300006E0012070BD84F84050204600F024F800
:100E4000242084F841002068C16821F40051C16069
:100E5000204600F09FFA2068016921F49041016169
:100E60002068416921F02A0141612068C16841F48C
:100E70000051C1606564202084F8410084F842007C
:100E80006563002070BD000030B585B0002400947B
:100E900001940294039400681449884224D11448B0
:100EA000816941F480418161816901F4804104914B
:100EB000816941F00401816180690E4D00F00400F8
:100EC00004904FF4007000900220019003200390E2
:100ED00069462846FFF782F92815CDE900046946DE
:100EE00028460294FFF77AF905B030BD003801407A
:100EF0000010024000080140FEE7000070B5044603
:100F0000F821342000F05EF85FF0000505F1800064
:100F1000C0B2F82100F056F8F821802000F052F815
:100F200000262046641C0078FA2100F04BF8761C5D
:100F3000F6B2102EF5D36D1CEDB2202DE6D30025B0
:100F400005F18000C0B2F82100F03CF8F8218820BB
:100F500000F038F800262046641C0078FA2100F0E2
:100F600031F8761CF6B2102EF5D36D1CEDB2202DA3
:100F7000E6D3F821362000F025F8BDE87040F821CE
:100F8000302000F01FB810B5F821302000F01AF81A
:100F90000A20FFF711F9F8210C2000F013F80A20BD
:100FA000FFF70AF9F821022000F00CF80A20FFF7F9
:100FB00003F9F821012000F005F8BDE810400A20EF
:100FC000FFF7FAB82DE9F0412E4E88460746012278
:100FD00010213046FFF7FEF9012211463046FFF797
:100FE000F9F900255FF00104C5F1070104FA01F0E9
:100FF00000EA080000F07EF9002210213046FFF7D9
:10100000E9F9012210213046FFF7E4F96D1CEDB239
:10101000082DE9D35FF00005C5F1070104FA01F0DE
:10102000384000F0F00000F065F900221021304651
:10103000FFF7D0F9012210213046FFF7CBF96D1CE4
:10104000EDB2082DE8D30025C5F1070004FA00F041
:1010500000EA0710C0B200F04DF90022102130461E
:10106000FFF7B8F9012210213046FFF7B3F96D1CE4
:10107000EDB2082DE8D33046BDE8F0410022012151
:10108000FFF7A8B90008014070B586B000251848E0
:101090000095019502950395816941F010018161E8
:1010A000816901F010010491816941F004018161BD
:1010B0008069104E00F00400049000221321304695
:1010C000FFF788F901240094CDE90145022569461E
:1010D00030460395FFF782F81220CDE900046946F7
:1010E0003046CDE90245FFF779F806B070BD000043
:1010F00000100240000801401CB50024184801946B
:10110000164900940160611E41604FF48071816056
:10111000FFF73AFD08B1FFF74DF88DF804408DF860
:1011200005408DF80640012201A90D48FFF7F2FDA8
:1011300008B1FFF73FF801208DF800008DF801009D
:101140008DF8020002468DF8034069460448FFF717
:101150007FFD002801D0FFF72DF81CBD00280040BE
:10116000100400200C4810B50A4901604FF4E13129
:101170004160002181600C22C160C0E904128161DC
:10118000C161FFF74EFE002803D0BDE81040FFF715
:1011900011B810BD0038014024040020FEE7FEE72E
:1011A0007047010901EB810100F00F0000EB4100E5
:1011B000C0B2704770B50446FFF712F905464FF408
:1011C0007A7606E0FFF70CF9401BB04201D9032004
:1011D00070BD206840688006F4D52068416841F001
:1011E00010014160002070BD70B504460068416880
:1011F00021F010014160FFF7F3F805464FF47A76CD
:1012000007E000BFFFF7ECF8401BB04201D9032014
:1012100070BD206840688006F4D5002070BD01686C
:10122000086A496A89B241EA0040704700688169EA
:101230008AB2C1698BB2816989B28A4203D0C0691E
:1012400061F31F40704743EA02407047F0B56424E1
:10125000C1EBC1030927A500072603EB01130329EE
:10126000B3FBF7F100F5FA60114401440AD2401EC5
:10127000B0FBF4F201EB9001B0FBF5F0891A0844E1
:10128000001D08E0B0FBF4F201EB9001B0FBF5F0BB
:10129000891A0844801CB0FBF6F106FB1100C0B2AD
:1012A000F0BD70B50D4606460024FFF783FF48B930
:1012B0003168280C08623168A8B248623046FFF7EE
:1012C00093FF00B10124204670BD70B50D4606465F
:1012D0000024FFF76FFF48B93168280C8861316836
:1012E000A8B2C8613046FFF77FFF00B10124204655
:1012F00070BD0000044B08B1012200E00022022171
:101300001846FFF767B80000000801407047FFF774
:101310006DB870B596B028216846FEF72CFF1421F1
:101320000AA8FEF728FF18210FA8FEF724FF0124C2
:10133000052000250090CDE902544FF48030019043
:1013400002260494CDE907604FF4E0100990684646
:10135000FFF78AFA08B172B6FEE70F20CDE90A0658
:101360004FF48060CDE90C5002210AA80E95FFF7DA
:101370009FF908B172B6FEE74FF48070CDE90F40D7
:101380000FA8FFF71FF9002801D072B6FEE716B0CC
:1013900070BD704770B5044600680169E26821F4C9
:1013A0004051114301612169A06808436169084304
:1013B0002168CA6841F20C639A430243CA602068FC
:1013C0004169A26921F44071114341611E492068BD
:1013D000884202D1FFF712FA01E0FFF7FFF900EBB4
:1013E000C00101EB0012606864218000B2FBF0F3E1
:1013F000B3FBF1F36FF018067343B2FBF0F5B2FBE9
:10140000F0F605EB8305322303EB0515B5FBF1F58B
:10141000B6FBF1F605F0F00505EB0615B2FBF0F6AC
:10142000B2FBF0F0B0FBF1F06FF01802504306EBA6
:10143000800003EB0010B0FBF1F0216800F00F001A
:101440002844886070BD000000380140FEE70907AD
:10145000090E002804DB00F1E02080F8001470473A
:1014600000F00F0000F1E02080F8141D704702E04A
:1014700008C8121F08C1002AFAD17047704700201F
:1014800001E001C1121F002AFBD17047FEF7B6FF31
:10149000FFF73FFF4FF480610C48FEF76CFE002021
:1014A0000A49FF220B18401CC0B283F8F021102813
:1014B000F8D3FFF7E9FDFFF71FFEFFF753FEFFF735
:1014C00062FD0348FFF71AFDFEE700001000002050
:1014D00010150008010202030405060708090A0B9B
:1014E0000C0D0E0F10100102020304050607080977
:1014F0000A0B0C0D0E0F1010000000000000000081
:1015000001020304060708090000000001020304A9
:1015100000000000000000000000000000000000CB
:1015200000000000000000000000000000000000BB
:1015300000000000000000000000000000000000AB
:10154000000000000000000000000000000000009B
:10155000000000000000000000000000000000008B
:10156000000000000000000000000000000000007B
:10157000000000000000000000000000000000006B
:10158000000000000000000000000000000000005B
:10159000000000000000000000000000000000004B
:1015A000000000000000000000000079E0000000E2
:1015B00000000000000000000000007FE0000000CC
:1015C0000000000000000000000000676000000054
:1015D000000000000000000000000070600000003B
:1015E000000000000000000000000030E0000000EB
:1015F0000001F7C0000000000000003DC000000036
:101600000003FFE0000000000000001F8000000059
:101610000003BEE000000000000003C60000000060
:10162000000308600000000000000FE00000000060
:10163000000380E00000000183001F800000000024
:10164000000381E00000000183001C600000000036
:101650000001C380001FFE0187F018E000000000B9
:101660000000E701001FFE018FF818700000000065
:101670000000FF0F800C0601C3181FFF00000000D0
:1016800000003E1D980C0607E31F1FFF000000002E
:1016900000001C3FFC0C060F8FFF093A0000000001
:1016A0000000003FFC0C060D9FF803BF8000000007
:1016B0000000007F800FF60D833803BB8000000020
:1016C000000000E1800FF601833C03B9C000000078
:1016D000000001E1F80C0601871E0379800000007C
:1016E000000001DFFC0C0601870E00700000000006
:1016F0000000001FF80C06018E06007000000000BC
:1017000000000003800C06019C00000000000000A7
:1017100000000003800FFE0000003BC0000000003E
:1017200000000003800FFE0000007FE000000000CA
:10173000000000FFFE0C000000007F6000000000C1
:10174000000000FFFE0000000000666000000000D6
:101750000000000000000000000070E00000000039
:101760000000000000000000000079E00000000020
:101770000000000000001F8000001FC000000000EB
:101780000000000000007FC0000007800000000093
:1017900000000003FC00F9E000000183800000006D
:1017A00000000003FF83E0E000000003E000000011
:1017B000000000079FE7807000003C0FE000000081
:1017C0000000000F03FF007000007FBFE00000007A
:1017D0000000000E00FC0070000073FCE000000040
:1017E0000000001E0038007000007CF9E0000000DE
:1017F0000000001C000000E000001F7DC000000091
:101800000000001C000001E000000FDFC00000002D
:101810000000001E000001C0000007CFE000000033
:101820000000000F000003C0000003FBF8000000F0
:101830000000000780000780000001FC7C00000021
:1018400000000003C0000F00000007BF3E000000C2
:1018500000000001F0001E0000000FCF0F0000008C
:1018600000000000F8003C0000000FF707800000B7
:10187000000000007E00380000001CFC07C00000D3
:10188000000000001F80780000007C7E01C0000086
:101890000000000007C0F00000007F9E01C00000B3
:1018A0000000000003E1E00000007FCE01C0000066
:1018B0000000000000FBC00000003BF001C0000081
:1018C00000000000007F8000000018F803C0000046
:1018D00000000000003F000000000E3C03800000FC
:1018E00000000000001E00000000039C07800000B4
:1018F0000000000000040000000001C0070000001C
:101900000000000000000000000000E00F000000E8
:101910003019000800000020100000006E140008BC
:101920004019000810000020600800007E14000824
:101930000100000010000000000000000024F4007E
:0400000508000131BD
:00000001FF
